{
  "address": "0x36E714D63B676236B72a0a4405F726337b06b6e5",
  "abi": [
    {
      "inputs": [
        {
          "internalType": "address",
          "name": "_playToEarnAddr",
          "type": "address"
        },
        {
          "internalType": "address",
          "name": "_privateSaleAddr",
          "type": "address"
        },
        {
          "internalType": "address",
          "name": "_teamAddr",
          "type": "address"
        },
        {
          "internalType": "address",
          "name": "_stakingPoolAddr",
          "type": "address"
        },
        {
          "internalType": "address",
          "name": "_marketingAddr",
          "type": "address"
        },
        {
          "internalType": "address",
          "name": "_operationAddr",
          "type": "address"
        }
      ],
      "stateMutability": "nonpayable",
      "type": "constructor"
    },
    {
      "anonymous": false,
      "inputs": [
        {
          "indexed": true,
          "internalType": "address",
          "name": "owner",
          "type": "address"
        },
        {
          "indexed": true,
          "internalType": "address",
          "name": "spender",
          "type": "address"
        },
        {
          "indexed": false,
          "internalType": "uint256",
          "name": "value",
          "type": "uint256"
        }
      ],
      "name": "Approval",
      "type": "event"
    },
    {
      "anonymous": false,
      "inputs": [
        {
          "indexed": true,
          "internalType": "address",
          "name": "from",
          "type": "address"
        },
        {
          "indexed": true,
          "internalType": "address",
          "name": "to",
          "type": "address"
        },
        {
          "indexed": false,
          "internalType": "uint256",
          "name": "value",
          "type": "uint256"
        }
      ],
      "name": "Transfer",
      "type": "event"
    },
    {
      "inputs": [],
      "name": "MAX_SUPPLY",
      "outputs": [
        {
          "internalType": "uint256",
          "name": "",
          "type": "uint256"
        }
      ],
      "stateMutability": "view",
      "type": "function"
    },
    {
      "inputs": [
        {
          "internalType": "address",
          "name": "owner",
          "type": "address"
        },
        {
          "internalType": "address",
          "name": "spender",
          "type": "address"
        }
      ],
      "name": "allowance",
      "outputs": [
        {
          "internalType": "uint256",
          "name": "",
          "type": "uint256"
        }
      ],
      "stateMutability": "view",
      "type": "function"
    },
    {
      "inputs": [
        {
          "internalType": "address",
          "name": "spender",
          "type": "address"
        },
        {
          "internalType": "uint256",
          "name": "amount",
          "type": "uint256"
        }
      ],
      "name": "approve",
      "outputs": [
        {
          "internalType": "bool",
          "name": "",
          "type": "bool"
        }
      ],
      "stateMutability": "nonpayable",
      "type": "function"
    },
    {
      "inputs": [
        {
          "internalType": "address",
          "name": "account",
          "type": "address"
        }
      ],
      "name": "balanceOf",
      "outputs": [
        {
          "internalType": "uint256",
          "name": "",
          "type": "uint256"
        }
      ],
      "stateMutability": "view",
      "type": "function"
    },
    {
      "inputs": [],
      "name": "decimals",
      "outputs": [
        {
          "internalType": "uint8",
          "name": "",
          "type": "uint8"
        }
      ],
      "stateMutability": "view",
      "type": "function"
    },
    {
      "inputs": [
        {
          "internalType": "address",
          "name": "spender",
          "type": "address"
        },
        {
          "internalType": "uint256",
          "name": "subtractedValue",
          "type": "uint256"
        }
      ],
      "name": "decreaseAllowance",
      "outputs": [
        {
          "internalType": "bool",
          "name": "",
          "type": "bool"
        }
      ],
      "stateMutability": "nonpayable",
      "type": "function"
    },
    {
      "inputs": [
        {
          "internalType": "address",
          "name": "spender",
          "type": "address"
        },
        {
          "internalType": "uint256",
          "name": "addedValue",
          "type": "uint256"
        }
      ],
      "name": "increaseAllowance",
      "outputs": [
        {
          "internalType": "bool",
          "name": "",
          "type": "bool"
        }
      ],
      "stateMutability": "nonpayable",
      "type": "function"
    },
    {
      "inputs": [],
      "name": "name",
      "outputs": [
        {
          "internalType": "string",
          "name": "",
          "type": "string"
        }
      ],
      "stateMutability": "view",
      "type": "function"
    },
    {
      "inputs": [],
      "name": "symbol",
      "outputs": [
        {
          "internalType": "string",
          "name": "",
          "type": "string"
        }
      ],
      "stateMutability": "view",
      "type": "function"
    },
    {
      "inputs": [],
      "name": "totalSupply",
      "outputs": [
        {
          "internalType": "uint256",
          "name": "",
          "type": "uint256"
        }
      ],
      "stateMutability": "view",
      "type": "function"
    },
    {
      "inputs": [
        {
          "internalType": "address",
          "name": "recipient",
          "type": "address"
        },
        {
          "internalType": "uint256",
          "name": "amount",
          "type": "uint256"
        }
      ],
      "name": "transfer",
      "outputs": [
        {
          "internalType": "bool",
          "name": "",
          "type": "bool"
        }
      ],
      "stateMutability": "nonpayable",
      "type": "function"
    },
    {
      "inputs": [
        {
          "internalType": "address",
          "name": "sender",
          "type": "address"
        },
        {
          "internalType": "address",
          "name": "recipient",
          "type": "address"
        },
        {
          "internalType": "uint256",
          "name": "amount",
          "type": "uint256"
        }
      ],
      "name": "transferFrom",
      "outputs": [
        {
          "internalType": "bool",
          "name": "",
          "type": "bool"
        }
      ],
      "stateMutability": "nonpayable",
      "type": "function"
    }
  ],
  "transactionHash": "0x2d0cfad2d63312211cec866e3fc1a96534a5f421deaedbb8119cd63fa3f036fe",
  "args": [
    "0xe814B3113D8bdfd21185325dA7cB5d78C1d07242",
    "0x9cBFDf30AeCcC0B02523C156c969EaAF2e2597a5",
    "0x738B782Ce662508A224ea25943d2a4af11323831",
    "0xF356764EfA63F9a3E770c5b572e96BE261Fb3265",
    "0x64F1f0CB589AFb2B4cDb6B0Fd4453AC7738C4a85",
    "0x3195a58445AE987A4208Ef292DDF7B1877697085"
  ],
  "numDeployments": 1,
  "solcInputHash": "9fd8be02e38f201ffceee2a7775ae9ea",
  "bytecode": "0x60806040523480156200001157600080fd5b506040516200104b3803806200104b833981810160405260c08110156200003757600080fd5b5080516020808301516040808501516060860151608087015160a09097015183518085018552601481527f47656e65736973556e697665727365546f6b656e000000000000000000000000818801908152855180870190965260038087526211d55560ea1b98870198909852815198999698949793969592949193620000c09290919062000477565b508051620000d690600490602084019062000477565b505060058054601260ff199091161790555062000132866200012c6064620001186b033b2e3c9fd0803ce8000000603262000238602090811b6200059717901c565b6200029f60201b620005f71790919060201c565b62000308565b62000164856200012c606462000118600f6b033b2e3c9fd0803ce80000006200023860201b620005971790919060201c565b62000196846200012c606462000118600f6b033b2e3c9fd0803ce80000006200023860201b620005971790919060201c565b620001c8836200012c606462000118600a6b033b2e3c9fd0803ce80000006200023860201b620005971790919060201c565b620001fa826200012c60646200011860056b033b2e3c9fd0803ce80000006200023860201b620005971790919060201c565b6200022c816200012c60646200011860056b033b2e3c9fd0803ce80000006200023860201b620005971790919060201c565b50505050505062000523565b600082620002495750600062000299565b828202828482816200025757fe5b0414620002965760405162461bcd60e51b81526004018080602001828103825260218152602001806200102a6021913960400191505060405180910390fd5b90505b92915050565b6000808211620002f6576040805162461bcd60e51b815260206004820152601a60248201527f536166654d6174683a206469766973696f6e206279207a65726f000000000000604482015290519081900360640190fd5b8183816200030057fe5b049392505050565b6001600160a01b03821662000364576040805162461bcd60e51b815260206004820152601f60248201527f45524332303a206d696e7420746f20746865207a65726f206164647265737300604482015290519081900360640190fd5b620003726000838362000417565b6200038e816002546200041c60201b6200065e1790919060201c565b6002556001600160a01b03821660009081526020818152604090912054620003c19183906200065e6200041c821b17901c565b6001600160a01b0383166000818152602081815260408083209490945583518581529351929391927fddf252ad1be2c89b69c2b068fc378daa952ba7f163c4a11628f55a4df523b3ef9281900390910190a35050565b505050565b60008282018381101562000296576040805162461bcd60e51b815260206004820152601b60248201527f536166654d6174683a206164646974696f6e206f766572666c6f770000000000604482015290519081900360640190fd5b828054600181600116156101000203166002900490600052602060002090601f016020900481019282620004af5760008555620004fa565b82601f10620004ca57805160ff1916838001178555620004fa565b82800160010185558215620004fa579182015b82811115620004fa578251825591602001919060010190620004dd565b50620005089291506200050c565b5090565b5b808211156200050857600081556001016200050d565b610af780620005336000396000f3fe608060405234801561001057600080fd5b50600436106100b45760003560e01c8063395093511161007157806339509351146101ec57806370a082311461021857806395d89b411461023e578063a457c2d714610246578063a9059cbb14610272578063dd62ed3e1461029e576100b4565b806306fdde03146100b9578063095ea7b31461013657806318160ddd1461017657806323b872dd14610190578063313ce567146101c657806332cb6b0c146101e4575b600080fd5b6100c16102cc565b6040805160208082528351818301528351919283929083019185019080838360005b838110156100fb5781810151838201526020016100e3565b50505050905090810190601f1680156101285780820380516001836020036101000a031916815260200191505b509250505060405180910390f35b6101626004803603604081101561014c57600080fd5b506001600160a01b038135169060200135610362565b604080519115158252519081900360200190f35b61017e610380565b60408051918252519081900360200190f35b610162600480360360608110156101a657600080fd5b506001600160a01b03813581169160208101359091169060400135610386565b6101ce61040d565b6040805160ff9092168252519081900360200190f35b61017e610416565b6101626004803603604081101561020257600080fd5b506001600160a01b038135169060200135610426565b61017e6004803603602081101561022e57600080fd5b50356001600160a01b0316610474565b6100c161048f565b6101626004803603604081101561025c57600080fd5b506001600160a01b0381351690602001356104f0565b6101626004803603604081101561028857600080fd5b506001600160a01b038135169060200135610558565b61017e600480360360408110156102b457600080fd5b506001600160a01b038135811691602001351661056c565b60038054604080516020601f60026000196101006001881615020190951694909404938401819004810282018101909252828152606093909290918301828280156103585780601f1061032d57610100808354040283529160200191610358565b820191906000526020600020905b81548152906001019060200180831161033b57829003601f168201915b5050505050905090565b600061037661036f6106b8565b84846106bc565b5060015b92915050565b60025490565b60006103938484846107a8565b6104038461039f6106b8565b6103fe85604051806060016040528060288152602001610a2c602891396001600160a01b038a166000908152600160205260408120906103dd6106b8565b6001600160a01b031681526020810191909152604001600020549190610903565b6106bc565b5060019392505050565b60055460ff1690565b6b033b2e3c9fd0803ce800000081565b60006103766104336106b8565b846103fe85600160006104446106b8565b6001600160a01b03908116825260208083019390935260409182016000908120918c16815292529020549061065e565b6001600160a01b031660009081526020819052604090205490565b60048054604080516020601f60026000196101006001881615020190951694909404938401819004810282018101909252828152606093909290918301828280156103585780601f1061032d57610100808354040283529160200191610358565b60006103766104fd6106b8565b846103fe85604051806060016040528060258152602001610a9d60259139600160006105276106b8565b6001600160a01b03908116825260208083019390935260409182016000908120918d16815292529020549190610903565b60006103766105656106b8565b84846107a8565b6001600160a01b03918216600090815260016020908152604080832093909416825291909152205490565b6000826105a65750600061037a565b828202828482816105b357fe5b04146105f05760405162461bcd60e51b8152600401808060200182810382526021815260200180610a0b6021913960400191505060405180910390fd5b9392505050565b600080821161064d576040805162461bcd60e51b815260206004820152601a60248201527f536166654d6174683a206469766973696f6e206279207a65726f000000000000604482015290519081900360640190fd5b81838161065657fe5b049392505050565b6000828201838110156105f0576040805162461bcd60e51b815260206004820152601b60248201527f536166654d6174683a206164646974696f6e206f766572666c6f770000000000604482015290519081900360640190fd5b3390565b6001600160a01b0383166107015760405162461bcd60e51b8152600401808060200182810382526024815260200180610a796024913960400191505060405180910390fd5b6001600160a01b0382166107465760405162461bcd60e51b81526004018080602001828103825260228152602001806109c36022913960400191505060405180910390fd5b6001600160a01b03808416600081815260016020908152604080832094871680845294825291829020859055815185815291517f8c5be1e5ebec7d5bd14f71427d1e84f3dd0314c0f7b2291e5b200ac8c7c3b9259281900390910190a3505050565b6001600160a01b0383166107ed5760405162461bcd60e51b8152600401808060200182810382526025815260200180610a546025913960400191505060405180910390fd5b6001600160a01b0382166108325760405162461bcd60e51b81526004018080602001828103825260238152602001806109a06023913960400191505060405180910390fd5b61083d83838361099a565b61087a816040518060600160405280602681526020016109e5602691396001600160a01b0386166000908152602081905260409020549190610903565b6001600160a01b0380851660009081526020819052604080822093909355908416815220546108a9908261065e565b6001600160a01b038084166000818152602081815260409182902094909455805185815290519193928716927fddf252ad1be2c89b69c2b068fc378daa952ba7f163c4a11628f55a4df523b3ef92918290030190a3505050565b600081848411156109925760405162461bcd60e51b81526004018080602001828103825283818151815260200191508051906020019080838360005b8381101561095757818101518382015260200161093f565b50505050905090810190601f1680156109845780820380516001836020036101000a031916815260200191505b509250505060405180910390fd5b505050900390565b50505056fe45524332303a207472616e7366657220746f20746865207a65726f206164647265737345524332303a20617070726f766520746f20746865207a65726f206164647265737345524332303a207472616e7366657220616d6f756e7420657863656564732062616c616e6365536166654d6174683a206d756c7469706c69636174696f6e206f766572666c6f7745524332303a207472616e7366657220616d6f756e74206578636565647320616c6c6f77616e636545524332303a207472616e736665722066726f6d20746865207a65726f206164647265737345524332303a20617070726f76652066726f6d20746865207a65726f206164647265737345524332303a2064656372656173656420616c6c6f77616e63652062656c6f77207a65726fa26469706673582212202b6dc8c9f7711004530eeae772e4e7277879d190dfe5a7aa57e6174c47fd2c3664736f6c63430007060033536166654d6174683a206d756c7469706c69636174696f6e206f766572666c6f77",
  "devdoc": {
    "kind": "dev",
    "methods": {
      "allowance(address,address)": {
        "details": "See {IERC20-allowance}."
      },
      "approve(address,uint256)": {
        "details": "See {IERC20-approve}. Requirements: - `spender` cannot be the zero address."
      },
      "balanceOf(address)": {
        "details": "See {IERC20-balanceOf}."
      },
      "decimals()": {
        "details": "Returns the number of decimals used to get its user representation. For example, if `decimals` equals `2`, a balance of `505` tokens should be displayed to a user as `5,05` (`505 / 10 ** 2`). Tokens usually opt for a value of 18, imitating the relationship between Ether and Wei. This is the value {ERC20} uses, unless {_setupDecimals} is called. NOTE: This information is only used for _display_ purposes: it in no way affects any of the arithmetic of the contract, including {IERC20-balanceOf} and {IERC20-transfer}."
      },
      "decreaseAllowance(address,uint256)": {
        "details": "Atomically decreases the allowance granted to `spender` by the caller. This is an alternative to {approve} that can be used as a mitigation for problems described in {IERC20-approve}. Emits an {Approval} event indicating the updated allowance. Requirements: - `spender` cannot be the zero address. - `spender` must have allowance for the caller of at least `subtractedValue`."
      },
      "increaseAllowance(address,uint256)": {
        "details": "Atomically increases the allowance granted to `spender` by the caller. This is an alternative to {approve} that can be used as a mitigation for problems described in {IERC20-approve}. Emits an {Approval} event indicating the updated allowance. Requirements: - `spender` cannot be the zero address."
      },
      "name()": {
        "details": "Returns the name of the token."
      },
      "symbol()": {
        "details": "Returns the symbol of the token, usually a shorter version of the name."
      },
      "totalSupply()": {
        "details": "See {IERC20-totalSupply}."
      },
      "transfer(address,uint256)": {
        "details": "See {IERC20-transfer}. Requirements: - `recipient` cannot be the zero address. - the caller must have a balance of at least `amount`."
      },
      "transferFrom(address,address,uint256)": {
        "details": "See {IERC20-transferFrom}. Emits an {Approval} event indicating the updated allowance. This is not required by the EIP. See the note at the beginning of {ERC20}. Requirements: - `sender` and `recipient` cannot be the zero address. - `sender` must have a balance of at least `amount`. - the caller must have allowance for ``sender``'s tokens of at least `amount`."
      }
    },
    "version": 1
  },
  "userdoc": {
    "kind": "user",
    "methods": {},
    "version": 1
  },
  "storageLayout": {
    "storage": [
      {
        "astId": 3635,
        "contract": "contracts/v0.7/GenesisUniverseToken.sol:GenesisUniverseToken",
        "label": "_balances",
        "offset": 0,
        "slot": "0",
        "type": "t_mapping(t_address,t_uint256)"
      },
      {
        "astId": 3641,
        "contract": "contracts/v0.7/GenesisUniverseToken.sol:GenesisUniverseToken",
        "label": "_allowances",
        "offset": 0,
        "slot": "1",
        "type": "t_mapping(t_address,t_mapping(t_address,t_uint256))"
      },
      {
        "astId": 3643,
        "contract": "contracts/v0.7/GenesisUniverseToken.sol:GenesisUniverseToken",
        "label": "_totalSupply",
        "offset": 0,
        "slot": "2",
        "type": "t_uint256"
      },
      {
        "astId": 3645,
        "contract": "contracts/v0.7/GenesisUniverseToken.sol:GenesisUniverseToken",
        "label": "_name",
        "offset": 0,
        "slot": "3",
        "type": "t_string_storage"
      },
      {
        "astId": 3647,
        "contract": "contracts/v0.7/GenesisUniverseToken.sol:GenesisUniverseToken",
        "label": "_symbol",
        "offset": 0,
        "slot": "4",
        "type": "t_string_storage"
      },
      {
        "astId": 3649,
        "contract": "contracts/v0.7/GenesisUniverseToken.sol:GenesisUniverseToken",
        "label": "_decimals",
        "offset": 0,
        "slot": "5",
        "type": "t_uint8"
      }
    ],
    "types": {
      "t_address": {
        "encoding": "inplace",
        "label": "address",
        "numberOfBytes": "20"
      },
      "t_mapping(t_address,t_mapping(t_address,t_uint256))": {
        "encoding": "mapping",
        "key": "t_address",
        "label": "mapping(address => mapping(address => uint256))",
        "numberOfBytes": "32",
        "value": "t_mapping(t_address,t_uint256)"
      },
      "t_mapping(t_address,t_uint256)": {
        "encoding": "mapping",
        "key": "t_address",
        "label": "mapping(address => uint256)",
        "numberOfBytes": "32",
        "value": "t_uint256"
      },
      "t_string_storage": {
        "encoding": "bytes",
        "label": "string",
        "numberOfBytes": "32"
      },
      "t_uint256": {
        "encoding": "inplace",
        "label": "uint256",
        "numberOfBytes": "32"
      },
      "t_uint8": {
        "encoding": "inplace",
        "label": "uint8",
        "numberOfBytes": "1"
      }
    }
  }
}